{
  "_format": "hh-sol-artifact-1",
  "contractName": "DocumentVerify",
  "sourceName": "contracts/DocumentVerify.sol",
  "abi": [
    {
      "inputs": [
        {
          "internalType": "contract SoulboundToken",
          "name": "_token",
          "type": "address"
        }
      ],
      "stateMutability": "nonpayable",
      "type": "constructor"
    },
    {
      "inputs": [],
      "name": "AccessControlBadConfirmation",
      "type": "error"
    },
    {
      "inputs": [
        {
          "internalType": "address",
          "name": "account",
          "type": "address"
        },
        {
          "internalType": "bytes32",
          "name": "neededRole",
          "type": "bytes32"
        }
      ],
      "name": "AccessControlUnauthorizedAccount",
      "type": "error"
    },
    {
      "inputs": [
        {
          "internalType": "address",
          "name": "owner",
          "type": "address"
        }
      ],
      "name": "OwnableInvalidOwner",
      "type": "error"
    },
    {
      "inputs": [
        {
          "internalType": "address",
          "name": "account",
          "type": "address"
        }
      ],
      "name": "OwnableUnauthorizedAccount",
      "type": "error"
    },
    {
      "anonymous": false,
      "inputs": [
        {
          "indexed": true,
          "internalType": "address",
          "name": "previousOwner",
          "type": "address"
        },
        {
          "indexed": true,
          "internalType": "address",
          "name": "newOwner",
          "type": "address"
        }
      ],
      "name": "OwnershipTransferred",
      "type": "event"
    },
    {
      "anonymous": false,
      "inputs": [
        {
          "indexed": true,
          "internalType": "bytes32",
          "name": "role",
          "type": "bytes32"
        },
        {
          "indexed": true,
          "internalType": "bytes32",
          "name": "previousAdminRole",
          "type": "bytes32"
        },
        {
          "indexed": true,
          "internalType": "bytes32",
          "name": "newAdminRole",
          "type": "bytes32"
        }
      ],
      "name": "RoleAdminChanged",
      "type": "event"
    },
    {
      "anonymous": false,
      "inputs": [
        {
          "indexed": true,
          "internalType": "bytes32",
          "name": "role",
          "type": "bytes32"
        },
        {
          "indexed": true,
          "internalType": "address",
          "name": "account",
          "type": "address"
        },
        {
          "indexed": true,
          "internalType": "address",
          "name": "sender",
          "type": "address"
        }
      ],
      "name": "RoleGranted",
      "type": "event"
    },
    {
      "anonymous": false,
      "inputs": [
        {
          "indexed": true,
          "internalType": "bytes32",
          "name": "role",
          "type": "bytes32"
        },
        {
          "indexed": true,
          "internalType": "address",
          "name": "account",
          "type": "address"
        },
        {
          "indexed": true,
          "internalType": "address",
          "name": "sender",
          "type": "address"
        }
      ],
      "name": "RoleRevoked",
      "type": "event"
    },
    {
      "anonymous": false,
      "inputs": [
        {
          "indexed": false,
          "internalType": "uint256",
          "name": "date",
          "type": "uint256"
        },
        {
          "indexed": false,
          "internalType": "uint256",
          "name": "tokenId",
          "type": "uint256"
        }
      ],
      "name": "docadded",
      "type": "event"
    },
    {
      "inputs": [],
      "name": "DEFAULT_ADMIN_ROLE",
      "outputs": [
        {
          "internalType": "bytes32",
          "name": "",
          "type": "bytes32"
        }
      ],
      "stateMutability": "view",
      "type": "function"
    },
    {
      "inputs": [
        {
          "internalType": "address",
          "name": "minter",
          "type": "address"
        }
      ],
      "name": "GrantMinterAccess",
      "outputs": [],
      "stateMutability": "nonpayable",
      "type": "function"
    },
    {
      "inputs": [],
      "name": "MINTER_ROLE",
      "outputs": [
        {
          "internalType": "bytes32",
          "name": "",
          "type": "bytes32"
        }
      ],
      "stateMutability": "view",
      "type": "function"
    },
    {
      "inputs": [
        {
          "internalType": "string",
          "name": "hash",
          "type": "string"
        },
        {
          "internalType": "address",
          "name": "to",
          "type": "address"
        }
      ],
      "name": "add",
      "outputs": [],
      "stateMutability": "nonpayable",
      "type": "function"
    },
    {
      "inputs": [
        {
          "internalType": "uint256",
          "name": "tokenId",
          "type": "uint256"
        }
      ],
      "name": "getDocument",
      "outputs": [
        {
          "internalType": "string",
          "name": "hash",
          "type": "string"
        }
      ],
      "stateMutability": "view",
      "type": "function"
    },
    {
      "inputs": [
        {
          "internalType": "bytes32",
          "name": "role",
          "type": "bytes32"
        }
      ],
      "name": "getRoleAdmin",
      "outputs": [
        {
          "internalType": "bytes32",
          "name": "",
          "type": "bytes32"
        }
      ],
      "stateMutability": "view",
      "type": "function"
    },
    {
      "inputs": [
        {
          "internalType": "bytes32",
          "name": "role",
          "type": "bytes32"
        },
        {
          "internalType": "address",
          "name": "account",
          "type": "address"
        }
      ],
      "name": "grantRole",
      "outputs": [],
      "stateMutability": "nonpayable",
      "type": "function"
    },
    {
      "inputs": [
        {
          "internalType": "bytes32",
          "name": "role",
          "type": "bytes32"
        },
        {
          "internalType": "address",
          "name": "account",
          "type": "address"
        }
      ],
      "name": "hasRole",
      "outputs": [
        {
          "internalType": "bool",
          "name": "",
          "type": "bool"
        }
      ],
      "stateMutability": "view",
      "type": "function"
    },
    {
      "inputs": [],
      "name": "owner",
      "outputs": [
        {
          "internalType": "address",
          "name": "",
          "type": "address"
        }
      ],
      "stateMutability": "view",
      "type": "function"
    },
    {
      "inputs": [],
      "name": "renounceOwnership",
      "outputs": [],
      "stateMutability": "nonpayable",
      "type": "function"
    },
    {
      "inputs": [
        {
          "internalType": "bytes32",
          "name": "role",
          "type": "bytes32"
        },
        {
          "internalType": "address",
          "name": "callerConfirmation",
          "type": "address"
        }
      ],
      "name": "renounceRole",
      "outputs": [],
      "stateMutability": "nonpayable",
      "type": "function"
    },
    {
      "inputs": [
        {
          "internalType": "bytes32",
          "name": "role",
          "type": "bytes32"
        },
        {
          "internalType": "address",
          "name": "account",
          "type": "address"
        }
      ],
      "name": "revokeRole",
      "outputs": [],
      "stateMutability": "nonpayable",
      "type": "function"
    },
    {
      "inputs": [
        {
          "internalType": "bytes4",
          "name": "interfaceId",
          "type": "bytes4"
        }
      ],
      "name": "supportsInterface",
      "outputs": [
        {
          "internalType": "bool",
          "name": "",
          "type": "bool"
        }
      ],
      "stateMutability": "view",
      "type": "function"
    },
    {
      "inputs": [
        {
          "internalType": "address",
          "name": "newOwner",
          "type": "address"
        }
      ],
      "name": "transferOwnership",
      "outputs": [],
      "stateMutability": "nonpayable",
      "type": "function"
    },
    {
      "inputs": [
        {
          "internalType": "string",
          "name": "hash",
          "type": "string"
        }
      ],
      "name": "verifyDocument",
      "outputs": [
        {
          "internalType": "bool",
          "name": "",
          "type": "bool"
        }
      ],
      "stateMutability": "view",
      "type": "function"
    }
  ],
  "bytecode": "0x60806040523480156200001157600080fd5b5060405162001f2038038062001f20833981810160405281019062000037919062000249565b33600073ffffffffffffffffffffffffffffffffffffffff168173ffffffffffffffffffffffffffffffffffffffff1603620000ad5760006040517f1e4fbdf7000000000000000000000000000000000000000000000000000000008152600401620000a491906200028c565b60405180910390fd5b620000be816200010760201b60201c565b5080600260006101000a81548173ffffffffffffffffffffffffffffffffffffffff021916908373ffffffffffffffffffffffffffffffffffffffff16021790555050620002a9565b60008060009054906101000a900473ffffffffffffffffffffffffffffffffffffffff169050816000806101000a81548173ffffffffffffffffffffffffffffffffffffffff021916908373ffffffffffffffffffffffffffffffffffffffff1602179055508173ffffffffffffffffffffffffffffffffffffffff168173ffffffffffffffffffffffffffffffffffffffff167f8be0079c531659141344cd1fd0a4f28419497f9722a3daafe3b4186f6b6457e060405160405180910390a35050565b600080fd5b600073ffffffffffffffffffffffffffffffffffffffff82169050919050565b6000620001fd82620001d0565b9050919050565b60006200021182620001f0565b9050919050565b620002238162000204565b81146200022f57600080fd5b50565b600081519050620002438162000218565b92915050565b600060208284031215620002625762000261620001cb565b5b6000620002728482850162000232565b91505092915050565b6200028681620001f0565b82525050565b6000602082019050620002a360008301846200027b565b92915050565b611c6780620002b96000396000f3fe608060405234801561001057600080fd5b50600436106100f55760003560e01c8063715018a611610097578063beee5eb711610066578063beee5eb714610270578063d5391393146102a0578063d547741f146102be578063f2fde38b146102da576100f5565b8063715018a6146101fa5780638da5cb5b1461020457806391d1485414610222578063a217fddf14610252576100f5565b80632f2ff15d116100d35780632f2ff15d1461017657806336568abe146101925780633f9b250a146101ae5780636859f2bb146101de576100f5565b806301ffc9a7146100fa578063248a9ca31461012a5780632bffc7ed1461015a575b600080fd5b610114600480360381019061010f9190611225565b6102f6565b604051610121919061126d565b60405180910390f35b610144600480360381019061013f91906112be565b610370565b60405161015191906112fa565b60405180910390f35b610174600480360381019061016f91906114b9565b610390565b005b610190600480360381019061018b9190611515565b6106d0565b005b6101ac60048036038101906101a79190611515565b6106f2565b005b6101c860048036038101906101c3919061158b565b61076d565b6040516101d59190611637565b60405180910390f35b6101f860048036038101906101f39190611659565b610970565b005b6102026109a6565b005b61020c6109ba565b6040516102199190611695565b60405180910390f35b61023c60048036038101906102379190611515565b6109e3565b604051610249919061126d565b60405180910390f35b61025a610a4e565b60405161026791906112fa565b60405180910390f35b61028a600480360381019061028591906116b0565b610a55565b604051610297919061126d565b60405180910390f35b6102a8610acc565b6040516102b591906112fa565b60405180910390f35b6102d860048036038101906102d39190611515565b610af0565b005b6102f460048036038101906102ef9190611659565b610b12565b005b60007f7965db0b000000000000000000000000000000000000000000000000000000007bffffffffffffffffffffffffffffffffffffffffffffffffffffffff1916827bffffffffffffffffffffffffffffffffffffffffffffffffffffffff19161480610369575061036882610b98565b5b9050919050565b600060016000838152602001908152602001600020600101549050919050565b6103ba7f9f2df0fed2c77648de5860a4cc508cd0818c85b8b8a1ab4ceeef8d981c8956a6336109e3565b6103f9576040517f08c379a00000000000000000000000000000000000000000000000000000000081526004016103f090611745565b60405180910390fd5b60004290506000600260009054906101000a900473ffffffffffffffffffffffffffffffffffffffff1673ffffffffffffffffffffffffffffffffffffffff1663caa0f92a6040518163ffffffff1660e01b8152600401602060405180830381865afa15801561046d573d6000803e3d6000fd5b505050506040513d601f19601f82011682018060405250810190610491919061177a565b9050600060405180606001604052808381526020018681526020018481525090506104f06040518060400160405280600a81526020017f6164642063616c6c656400000000000000000000000000000000000000000000815250610c02565b846005600084815260200190815260200160002060008673ffffffffffffffffffffffffffffffffffffffff1673ffffffffffffffffffffffffffffffffffffffff168152602001908152602001600020908161054d91906119b3565b508360048660405161055f9190611ac1565b908152602001604051809103902060006101000a81548173ffffffffffffffffffffffffffffffffffffffff021916908373ffffffffffffffffffffffffffffffffffffffff16021790555060038190806001815401808255809150506001900390600052602060002090600302016000909190919091506000820151816000015560208201518160010190816105f691906119b3565b50604082015181600201555050600260009054906101000a900473ffffffffffffffffffffffffffffffffffffffff1673ffffffffffffffffffffffffffffffffffffffff166340d097c3856040518263ffffffff1660e01b815260040161065e9190611695565b600060405180830381600087803b15801561067857600080fd5b505af115801561068c573d6000803e3d6000fd5b505050507f68b5a1ebabcb8f7e2cda9844c52199ad7dfd5dba55e3d7269a29e7f18350e0e083836040516106c1929190611ae7565b60405180910390a15050505050565b6106d982610370565b6106e281610c9b565b6106ec8383610caf565b50505050565b6106fa610da0565b73ffffffffffffffffffffffffffffffffffffffff168173ffffffffffffffffffffffffffffffffffffffff161461075e576040517f6697b23200000000000000000000000000000000000000000000000000000000815260040160405180910390fd5b6107688282610da8565b505050565b6060600260009054906101000a900473ffffffffffffffffffffffffffffffffffffffff1673ffffffffffffffffffffffffffffffffffffffff16636352211e836040518263ffffffff1660e01b81526004016107ca9190611b10565b602060405180830381865afa1580156107e7573d6000803e3d6000fd5b505050506040513d601f19601f8201168201806040525081019061080b9190611b40565b73ffffffffffffffffffffffffffffffffffffffff163373ffffffffffffffffffffffffffffffffffffffff1614610878576040517f08c379a000000000000000000000000000000000000000000000000000000000815260040161086f90611bb9565b60405180910390fd5b61088182610e9b565b61088a33610f34565b60006005600084815260200190815260200160002060003373ffffffffffffffffffffffffffffffffffffffff1673ffffffffffffffffffffffffffffffffffffffff16815260200190815260200160002080546108e7906117d6565b80601f0160208091040260200160405190810160405280929190818152602001828054610913906117d6565b80156109605780601f1061093557610100808354040283529160200191610960565b820191906000526020600020905b81548152906001019060200180831161094357829003601f168201915b5050505050905080915050919050565b610978610fcd565b6109a27f9f2df0fed2c77648de5860a4cc508cd0818c85b8b8a1ab4ceeef8d981c8956a682610caf565b5050565b6109ae610fcd565b6109b86000611054565b565b60008060009054906101000a900473ffffffffffffffffffffffffffffffffffffffff16905090565b60006001600084815260200190815260200160002060000160008373ffffffffffffffffffffffffffffffffffffffff1673ffffffffffffffffffffffffffffffffffffffff16815260200190815260200160002060009054906101000a900460ff16905092915050565b6000801b81565b60008073ffffffffffffffffffffffffffffffffffffffff16600483604051610a7e9190611ac1565b908152602001604051809103902060009054906101000a900473ffffffffffffffffffffffffffffffffffffffff1673ffffffffffffffffffffffffffffffffffffffff1614159050919050565b7f9f2df0fed2c77648de5860a4cc508cd0818c85b8b8a1ab4ceeef8d981c8956a681565b610af982610370565b610b0281610c9b565b610b0c8383610da8565b50505050565b610b1a610fcd565b600073ffffffffffffffffffffffffffffffffffffffff168173ffffffffffffffffffffffffffffffffffffffff1603610b8c5760006040517f1e4fbdf7000000000000000000000000000000000000000000000000000000008152600401610b839190611695565b60405180910390fd5b610b9581611054565b50565b60007f01ffc9a7000000000000000000000000000000000000000000000000000000007bffffffffffffffffffffffffffffffffffffffffffffffffffffffff1916827bffffffffffffffffffffffffffffffffffffffffffffffffffffffff1916149050919050565b610c9881604051602401610c169190611637565b6040516020818303038152906040527f41304fac000000000000000000000000000000000000000000000000000000007bffffffffffffffffffffffffffffffffffffffffffffffffffffffff19166020820180517bffffffffffffffffffffffffffffffffffffffffffffffffffffffff8381831617835250505050611118565b50565b610cac81610ca7610da0565b611132565b50565b6000610cbb83836109e3565b610d9557600180600085815260200190815260200160002060000160008473ffffffffffffffffffffffffffffffffffffffff1673ffffffffffffffffffffffffffffffffffffffff16815260200190815260200160002060006101000a81548160ff021916908315150217905550610d32610da0565b73ffffffffffffffffffffffffffffffffffffffff168273ffffffffffffffffffffffffffffffffffffffff16847f2f8788117e7eff1d82e926ec794901d17c78024a50270940304540a733656f0d60405160405180910390a460019050610d9a565b600090505b92915050565b600033905090565b6000610db483836109e3565b15610e905760006001600085815260200190815260200160002060000160008473ffffffffffffffffffffffffffffffffffffffff1673ffffffffffffffffffffffffffffffffffffffff16815260200190815260200160002060006101000a81548160ff021916908315150217905550610e2d610da0565b73ffffffffffffffffffffffffffffffffffffffff168273ffffffffffffffffffffffffffffffffffffffff16847ff6391f5c32d9c69d2a47ea670b442974b53935d1edc7fd64eb21e047a839171b60405160405180910390a460019050610e95565b600090505b92915050565b610f3181604051602401610eaf9190611b10565b6040516020818303038152906040527ff82c50f1000000000000000000000000000000000000000000000000000000007bffffffffffffffffffffffffffffffffffffffffffffffffffffffff19166020820180517bffffffffffffffffffffffffffffffffffffffffffffffffffffffff8381831617835250505050611118565b50565b610fca81604051602401610f489190611695565b6040516020818303038152906040527f2c2ecbc2000000000000000000000000000000000000000000000000000000007bffffffffffffffffffffffffffffffffffffffffffffffffffffffff19166020820180517bffffffffffffffffffffffffffffffffffffffffffffffffffffffff8381831617835250505050611118565b50565b610fd5610da0565b73ffffffffffffffffffffffffffffffffffffffff16610ff36109ba565b73ffffffffffffffffffffffffffffffffffffffff161461105257611016610da0565b6040517f118cdaa70000000000000000000000000000000000000000000000000000000081526004016110499190611695565b60405180910390fd5b565b60008060009054906101000a900473ffffffffffffffffffffffffffffffffffffffff169050816000806101000a81548173ffffffffffffffffffffffffffffffffffffffff021916908373ffffffffffffffffffffffffffffffffffffffff1602179055508173ffffffffffffffffffffffffffffffffffffffff168173ffffffffffffffffffffffffffffffffffffffff167f8be0079c531659141344cd1fd0a4f28419497f9722a3daafe3b4186f6b6457e060405160405180910390a35050565b61112f816111276111836111a4565b63ffffffff16565b50565b61113c82826109e3565b61117f5780826040517fe2517d3f000000000000000000000000000000000000000000000000000000008152600401611176929190611bd9565b60405180910390fd5b5050565b60006a636f6e736f6c652e6c6f679050600080835160208501845afa505050565b6111af819050919050565b6111b7611c02565b565b6000604051905090565b600080fd5b600080fd5b60007fffffffff0000000000000000000000000000000000000000000000000000000082169050919050565b611202816111cd565b811461120d57600080fd5b50565b60008135905061121f816111f9565b92915050565b60006020828403121561123b5761123a6111c3565b5b600061124984828501611210565b91505092915050565b60008115159050919050565b61126781611252565b82525050565b6000602082019050611282600083018461125e565b92915050565b6000819050919050565b61129b81611288565b81146112a657600080fd5b50565b6000813590506112b881611292565b92915050565b6000602082840312156112d4576112d36111c3565b5b60006112e2848285016112a9565b91505092915050565b6112f481611288565b82525050565b600060208201905061130f60008301846112eb565b92915050565b600080fd5b600080fd5b6000601f19601f8301169050919050565b7f4e487b7100000000000000000000000000000000000000000000000000000000600052604160045260246000fd5b6113688261131f565b810181811067ffffffffffffffff8211171561138757611386611330565b5b80604052505050565b600061139a6111b9565b90506113a6828261135f565b919050565b600067ffffffffffffffff8211156113c6576113c5611330565b5b6113cf8261131f565b9050602081019050919050565b82818337600083830152505050565b60006113fe6113f9846113ab565b611390565b90508281526020810184848401111561141a5761141961131a565b5b6114258482856113dc565b509392505050565b600082601f83011261144257611441611315565b5b81356114528482602086016113eb565b91505092915050565b600073ffffffffffffffffffffffffffffffffffffffff82169050919050565b60006114868261145b565b9050919050565b6114968161147b565b81146114a157600080fd5b50565b6000813590506114b38161148d565b92915050565b600080604083850312156114d0576114cf6111c3565b5b600083013567ffffffffffffffff8111156114ee576114ed6111c8565b5b6114fa8582860161142d565b925050602061150b858286016114a4565b9150509250929050565b6000806040838503121561152c5761152b6111c3565b5b600061153a858286016112a9565b925050602061154b858286016114a4565b9150509250929050565b6000819050919050565b61156881611555565b811461157357600080fd5b50565b6000813590506115858161155f565b92915050565b6000602082840312156115a1576115a06111c3565b5b60006115af84828501611576565b91505092915050565b600081519050919050565b600082825260208201905092915050565b60005b838110156115f25780820151818401526020810190506115d7565b60008484015250505050565b6000611609826115b8565b61161381856115c3565b93506116238185602086016115d4565b61162c8161131f565b840191505092915050565b6000602082019050818103600083015261165181846115fe565b905092915050565b60006020828403121561166f5761166e6111c3565b5b600061167d848285016114a4565b91505092915050565b61168f8161147b565b82525050565b60006020820190506116aa6000830184611686565b92915050565b6000602082840312156116c6576116c56111c3565b5b600082013567ffffffffffffffff8111156116e4576116e36111c8565b5b6116f08482850161142d565b91505092915050565b7f43616c6c6572206973206e6f742061206d696e74657200000000000000000000600082015250565b600061172f6016836115c3565b915061173a826116f9565b602082019050919050565b6000602082019050818103600083015261175e81611722565b9050919050565b6000815190506117748161155f565b92915050565b6000602082840312156117905761178f6111c3565b5b600061179e84828501611765565b91505092915050565b7f4e487b7100000000000000000000000000000000000000000000000000000000600052602260045260246000fd5b600060028204905060018216806117ee57607f821691505b602082108103611801576118006117a7565b5b50919050565b60008190508160005260206000209050919050565b60006020601f8301049050919050565b600082821b905092915050565b6000600883026118697fffffffffffffffffffffffffffffffffffffffffffffffffffffffffffffffff8261182c565b611873868361182c565b95508019841693508086168417925050509392505050565b6000819050919050565b60006118b06118ab6118a684611555565b61188b565b611555565b9050919050565b6000819050919050565b6118ca83611895565b6118de6118d6826118b7565b848454611839565b825550505050565b600090565b6118f36118e6565b6118fe8184846118c1565b505050565b5b81811015611922576119176000826118eb565b600181019050611904565b5050565b601f8211156119675761193881611807565b6119418461181c565b81016020851015611950578190505b61196461195c8561181c565b830182611903565b50505b505050565b600082821c905092915050565b600061198a6000198460080261196c565b1980831691505092915050565b60006119a38383611979565b9150826002028217905092915050565b6119bc826115b8565b67ffffffffffffffff8111156119d5576119d4611330565b5b6119df82546117d6565b6119ea828285611926565b600060209050601f831160018114611a1d5760008415611a0b578287015190505b611a158582611997565b865550611a7d565b601f198416611a2b86611807565b60005b82811015611a5357848901518255600182019150602085019450602081019050611a2e565b86831015611a705784890151611a6c601f891682611979565b8355505b6001600288020188555050505b505050505050565b600081905092915050565b6000611a9b826115b8565b611aa58185611a85565b9350611ab58185602086016115d4565b80840191505092915050565b6000611acd8284611a90565b915081905092915050565b611ae181611555565b82525050565b6000604082019050611afc6000830185611ad8565b611b096020830184611ad8565b9392505050565b6000602082019050611b256000830184611ad8565b92915050565b600081519050611b3a8161148d565b92915050565b600060208284031215611b5657611b556111c3565b5b6000611b6484828501611b2b565b91505092915050565b7f596f7520617265206e6f7420746865206f776e65720000000000000000000000600082015250565b6000611ba36015836115c3565b9150611bae82611b6d565b602082019050919050565b60006020820190508181036000830152611bd281611b96565b9050919050565b6000604082019050611bee6000830185611686565b611bfb60208301846112eb565b9392505050565b7f4e487b7100000000000000000000000000000000000000000000000000000000600052605160045260246000fdfea26469706673582212203d5186b12b731c05b526ae288c074eca23277e838b20444cd44efd9ffd74938a64736f6c63430008180033",
  "linkReferences": {},
  "deployedLinkReferences": {}
}