{
  "_format": "hh-sol-artifact-1",
  "contractName": "DocumentVerify",
  "sourceName": "contracts/DocumentVerify.sol",
  "abi": [
    {
      "inputs": [
        {
          "internalType": "contract SoulboundToken",
          "name": "_token",
          "type": "address"
        }
      ],
      "stateMutability": "nonpayable",
      "type": "constructor"
    },
    {
      "inputs": [],
      "name": "AccessControlBadConfirmation",
      "type": "error"
    },
    {
      "inputs": [
        {
          "internalType": "address",
          "name": "account",
          "type": "address"
        },
        {
          "internalType": "bytes32",
          "name": "neededRole",
          "type": "bytes32"
        }
      ],
      "name": "AccessControlUnauthorizedAccount",
      "type": "error"
    },
    {
      "inputs": [
        {
          "internalType": "address",
          "name": "owner",
          "type": "address"
        }
      ],
      "name": "OwnableInvalidOwner",
      "type": "error"
    },
    {
      "inputs": [
        {
          "internalType": "address",
          "name": "account",
          "type": "address"
        }
      ],
      "name": "OwnableUnauthorizedAccount",
      "type": "error"
    },
    {
      "anonymous": false,
      "inputs": [
        {
          "indexed": true,
          "internalType": "address",
          "name": "previousOwner",
          "type": "address"
        },
        {
          "indexed": true,
          "internalType": "address",
          "name": "newOwner",
          "type": "address"
        }
      ],
      "name": "OwnershipTransferred",
      "type": "event"
    },
    {
      "anonymous": false,
      "inputs": [
        {
          "indexed": true,
          "internalType": "bytes32",
          "name": "role",
          "type": "bytes32"
        },
        {
          "indexed": true,
          "internalType": "bytes32",
          "name": "previousAdminRole",
          "type": "bytes32"
        },
        {
          "indexed": true,
          "internalType": "bytes32",
          "name": "newAdminRole",
          "type": "bytes32"
        }
      ],
      "name": "RoleAdminChanged",
      "type": "event"
    },
    {
      "anonymous": false,
      "inputs": [
        {
          "indexed": true,
          "internalType": "bytes32",
          "name": "role",
          "type": "bytes32"
        },
        {
          "indexed": true,
          "internalType": "address",
          "name": "account",
          "type": "address"
        },
        {
          "indexed": true,
          "internalType": "address",
          "name": "sender",
          "type": "address"
        }
      ],
      "name": "RoleGranted",
      "type": "event"
    },
    {
      "anonymous": false,
      "inputs": [
        {
          "indexed": true,
          "internalType": "bytes32",
          "name": "role",
          "type": "bytes32"
        },
        {
          "indexed": true,
          "internalType": "address",
          "name": "account",
          "type": "address"
        },
        {
          "indexed": true,
          "internalType": "address",
          "name": "sender",
          "type": "address"
        }
      ],
      "name": "RoleRevoked",
      "type": "event"
    },
    {
      "anonymous": false,
      "inputs": [
        {
          "indexed": false,
          "internalType": "uint256",
          "name": "date",
          "type": "uint256"
        },
        {
          "indexed": false,
          "internalType": "uint256",
          "name": "tokenId",
          "type": "uint256"
        }
      ],
      "name": "docadded",
      "type": "event"
    },
    {
      "inputs": [],
      "name": "DEFAULT_ADMIN_ROLE",
      "outputs": [
        {
          "internalType": "bytes32",
          "name": "",
          "type": "bytes32"
        }
      ],
      "stateMutability": "view",
      "type": "function"
    },
    {
      "inputs": [
        {
          "internalType": "address",
          "name": "minter",
          "type": "address"
        }
      ],
      "name": "GrantMinterAccess",
      "outputs": [],
      "stateMutability": "nonpayable",
      "type": "function"
    },
    {
      "inputs": [],
      "name": "MINTER_ROLE",
      "outputs": [
        {
          "internalType": "bytes32",
          "name": "",
          "type": "bytes32"
        }
      ],
      "stateMutability": "view",
      "type": "function"
    },
    {
      "inputs": [
        {
          "internalType": "string",
          "name": "hash",
          "type": "string"
        },
        {
          "internalType": "address",
          "name": "to",
          "type": "address"
        }
      ],
      "name": "add",
      "outputs": [],
      "stateMutability": "nonpayable",
      "type": "function"
    },
    {
      "inputs": [
        {
          "internalType": "uint256",
          "name": "tokenId",
          "type": "uint256"
        }
      ],
      "name": "getDocument",
      "outputs": [
        {
          "internalType": "string",
          "name": "hash",
          "type": "string"
        },
        {
          "internalType": "uint256",
          "name": "dateAdded",
          "type": "uint256"
        }
      ],
      "stateMutability": "view",
      "type": "function"
    },
    {
      "inputs": [
        {
          "internalType": "bytes32",
          "name": "role",
          "type": "bytes32"
        }
      ],
      "name": "getRoleAdmin",
      "outputs": [
        {
          "internalType": "bytes32",
          "name": "",
          "type": "bytes32"
        }
      ],
      "stateMutability": "view",
      "type": "function"
    },
    {
      "inputs": [
        {
          "internalType": "bytes32",
          "name": "role",
          "type": "bytes32"
        },
        {
          "internalType": "address",
          "name": "account",
          "type": "address"
        }
      ],
      "name": "grantRole",
      "outputs": [],
      "stateMutability": "nonpayable",
      "type": "function"
    },
    {
      "inputs": [
        {
          "internalType": "bytes32",
          "name": "role",
          "type": "bytes32"
        },
        {
          "internalType": "address",
          "name": "account",
          "type": "address"
        }
      ],
      "name": "hasRole",
      "outputs": [
        {
          "internalType": "bool",
          "name": "",
          "type": "bool"
        }
      ],
      "stateMutability": "view",
      "type": "function"
    },
    {
      "inputs": [],
      "name": "owner",
      "outputs": [
        {
          "internalType": "address",
          "name": "",
          "type": "address"
        }
      ],
      "stateMutability": "view",
      "type": "function"
    },
    {
      "inputs": [],
      "name": "renounceOwnership",
      "outputs": [],
      "stateMutability": "nonpayable",
      "type": "function"
    },
    {
      "inputs": [
        {
          "internalType": "bytes32",
          "name": "role",
          "type": "bytes32"
        },
        {
          "internalType": "address",
          "name": "callerConfirmation",
          "type": "address"
        }
      ],
      "name": "renounceRole",
      "outputs": [],
      "stateMutability": "nonpayable",
      "type": "function"
    },
    {
      "inputs": [
        {
          "internalType": "bytes32",
          "name": "role",
          "type": "bytes32"
        },
        {
          "internalType": "address",
          "name": "account",
          "type": "address"
        }
      ],
      "name": "revokeRole",
      "outputs": [],
      "stateMutability": "nonpayable",
      "type": "function"
    },
    {
      "inputs": [
        {
          "internalType": "bytes4",
          "name": "interfaceId",
          "type": "bytes4"
        }
      ],
      "name": "supportsInterface",
      "outputs": [
        {
          "internalType": "bool",
          "name": "",
          "type": "bool"
        }
      ],
      "stateMutability": "view",
      "type": "function"
    },
    {
      "inputs": [
        {
          "internalType": "address",
          "name": "newOwner",
          "type": "address"
        }
      ],
      "name": "transferOwnership",
      "outputs": [],
      "stateMutability": "nonpayable",
      "type": "function"
    },
    {
      "inputs": [
        {
          "internalType": "string",
          "name": "hash",
          "type": "string"
        }
      ],
      "name": "verifyDocument",
      "outputs": [
        {
          "internalType": "bool",
          "name": "",
          "type": "bool"
        }
      ],
      "stateMutability": "view",
      "type": "function"
    }
  ],
  "bytecode": "0x60806040523480156200001157600080fd5b506040516200218e3803806200218e833981810160405281019062000037919062000249565b33600073ffffffffffffffffffffffffffffffffffffffff168173ffffffffffffffffffffffffffffffffffffffff1603620000ad5760006040517f1e4fbdf7000000000000000000000000000000000000000000000000000000008152600401620000a491906200028c565b60405180910390fd5b620000be816200010760201b60201c565b5080600260006101000a81548173ffffffffffffffffffffffffffffffffffffffff021916908373ffffffffffffffffffffffffffffffffffffffff16021790555050620002a9565b60008060009054906101000a900473ffffffffffffffffffffffffffffffffffffffff169050816000806101000a81548173ffffffffffffffffffffffffffffffffffffffff021916908373ffffffffffffffffffffffffffffffffffffffff1602179055508173ffffffffffffffffffffffffffffffffffffffff168173ffffffffffffffffffffffffffffffffffffffff167f8be0079c531659141344cd1fd0a4f28419497f9722a3daafe3b4186f6b6457e060405160405180910390a35050565b600080fd5b600073ffffffffffffffffffffffffffffffffffffffff82169050919050565b6000620001fd82620001d0565b9050919050565b60006200021182620001f0565b9050919050565b620002238162000204565b81146200022f57600080fd5b50565b600081519050620002438162000218565b92915050565b600060208284031215620002625762000261620001cb565b5b6000620002728482850162000232565b91505092915050565b6200028681620001f0565b82525050565b6000602082019050620002a360008301846200027b565b92915050565b611ed580620002b96000396000f3fe608060405234801561001057600080fd5b50600436106100f55760003560e01c8063715018a611610097578063beee5eb711610066578063beee5eb714610271578063d5391393146102a1578063d547741f146102bf578063f2fde38b146102db576100f5565b8063715018a6146101fb5780638da5cb5b1461020557806391d1485414610223578063a217fddf14610253576100f5565b80632f2ff15d116100d35780632f2ff15d1461017657806336568abe146101925780633f9b250a146101ae5780636859f2bb146101df576100f5565b806301ffc9a7146100fa578063248a9ca31461012a5780632bffc7ed1461015a575b600080fd5b610114600480360381019061010f919061129c565b6102f7565b60405161012191906112e4565b60405180910390f35b610144600480360381019061013f9190611335565b610371565b6040516101519190611371565b60405180910390f35b610174600480360381019061016f9190611530565b610391565b005b610190600480360381019061018b919061158c565b6106f3565b005b6101ac60048036038101906101a7919061158c565b610715565b005b6101c860048036038101906101c39190611602565b610790565b6040516101d69291906116bd565b60405180910390f35b6101f960048036038101906101f491906116ed565b610b19565b005b610203610b4f565b005b61020d610b63565b60405161021a9190611729565b60405180910390f35b61023d6004803603810190610238919061158c565b610b8c565b60405161024a91906112e4565b60405180910390f35b61025b610bf7565b6040516102689190611371565b60405180910390f35b61028b60048036038101906102869190611744565b610bfe565b60405161029891906112e4565b60405180910390f35b6102a9610c75565b6040516102b69190611371565b60405180910390f35b6102d960048036038101906102d4919061158c565b610c99565b005b6102f560048036038101906102f091906116ed565b610cbb565b005b60007f7965db0b000000000000000000000000000000000000000000000000000000007bffffffffffffffffffffffffffffffffffffffffffffffffffffffff1916827bffffffffffffffffffffffffffffffffffffffffffffffffffffffff1916148061036a575061036982610d41565b5b9050919050565b600060016000838152602001908152602001600020600101549050919050565b6103bb7f9f2df0fed2c77648de5860a4cc508cd0818c85b8b8a1ab4ceeef8d981c8956a633610b8c565b6103fa576040517f08c379a00000000000000000000000000000000000000000000000000000000081526004016103f1906117d9565b60405180910390fd5b6000429050600060405180604001604052808581526020018381525090506104566040518060400160405280600a81526020017f6164642063616c6c656400000000000000000000000000000000000000000000815250610dab565b6104946040518060400160405280600381526020017f6869690000000000000000000000000000000000000000000000000000000000815250610dab565b6000600260009054906101000a900473ffffffffffffffffffffffffffffffffffffffff1673ffffffffffffffffffffffffffffffffffffffff1663caa0f92a6040518163ffffffff1660e01b8152600401602060405180830381865afa158015610503573d6000803e3d6000fd5b505050506040513d601f19601f82011682018060405250810190610527919061180e565b90508360048660405161053a9190611877565b908152602001604051809103902060006101000a81548173ffffffffffffffffffffffffffffffffffffffff021916908373ffffffffffffffffffffffffffffffffffffffff160217905550600382908060018154018082558091505060019003906000526020600020906002020160009091909190915060008201518160000190816105c79190611a9a565b50602082015181600101555050600260009054906101000a900473ffffffffffffffffffffffffffffffffffffffff1673ffffffffffffffffffffffffffffffffffffffff166340d097c3856040518263ffffffff1660e01b815260040161062f9190611729565b600060405180830381600087803b15801561064957600080fd5b505af115801561065d573d6000803e3d6000fd5b50505050836005600083815260200190815260200160002060006101000a81548173ffffffffffffffffffffffffffffffffffffffff021916908373ffffffffffffffffffffffffffffffffffffffff1602179055507f68b5a1ebabcb8f7e2cda9844c52199ad7dfd5dba55e3d7269a29e7f18350e0e083826040516106e4929190611b6c565b60405180910390a15050505050565b6106fc82610371565b61070581610e44565b61070f8383610e58565b50505050565b61071d610f49565b73ffffffffffffffffffffffffffffffffffffffff168173ffffffffffffffffffffffffffffffffffffffff1614610781576040517f6697b23200000000000000000000000000000000000000000000000000000000815260040160405180910390fd5b61078b8282610f51565b505050565b60606000600260009054906101000a900473ffffffffffffffffffffffffffffffffffffffff1673ffffffffffffffffffffffffffffffffffffffff16636352211e846040518263ffffffff1660e01b81526004016107ef9190611b95565b602060405180830381865afa15801561080c573d6000803e3d6000fd5b505050506040513d601f19601f820116820180604052508101906108309190611bc5565b73ffffffffffffffffffffffffffffffffffffffff163373ffffffffffffffffffffffffffffffffffffffff161461089d576040517f08c379a000000000000000000000000000000000000000000000000000000000815260040161089490611c3e565b60405180910390fd5b60006005600085815260200190815260200160002060009054906101000a900473ffffffffffffffffffffffffffffffffffffffff169050600073ffffffffffffffffffffffffffffffffffffffff168173ffffffffffffffffffffffffffffffffffffffff1603610944576040517f08c379a000000000000000000000000000000000000000000000000000000000815260040161093b90611caa565b60405180910390fd5b60005b600380549050811015610ad8578173ffffffffffffffffffffffffffffffffffffffff1660046003838154811061098157610980611cca565b5b906000526020600020906002020160000160405161099f9190611d7c565b908152602001604051809103902060009054906101000a900473ffffffffffffffffffffffffffffffffffffffff1673ffffffffffffffffffffffffffffffffffffffff1603610acb57600381815481106109fd576109fc611cca565b5b906000526020600020906002020160000160038281548110610a2257610a21611cca565b5b906000526020600020906002020160010154818054610a40906118bd565b80601f0160208091040260200160405190810160405280929190818152602001828054610a6c906118bd565b8015610ab95780601f10610a8e57610100808354040283529160200191610ab9565b820191906000526020600020905b815481529060010190602001808311610a9c57829003601f168201915b50505050509150935093505050610b14565b8080600101915050610947565b506040517f08c379a0000000000000000000000000000000000000000000000000000000008152600401610b0b90611e05565b60405180910390fd5b915091565b610b21611044565b610b4b7f9f2df0fed2c77648de5860a4cc508cd0818c85b8b8a1ab4ceeef8d981c8956a682610e58565b5050565b610b57611044565b610b6160006110cb565b565b60008060009054906101000a900473ffffffffffffffffffffffffffffffffffffffff16905090565b60006001600084815260200190815260200160002060000160008373ffffffffffffffffffffffffffffffffffffffff1673ffffffffffffffffffffffffffffffffffffffff16815260200190815260200160002060009054906101000a900460ff16905092915050565b6000801b81565b60008073ffffffffffffffffffffffffffffffffffffffff16600483604051610c279190611877565b908152602001604051809103902060009054906101000a900473ffffffffffffffffffffffffffffffffffffffff1673ffffffffffffffffffffffffffffffffffffffff1614159050919050565b7f9f2df0fed2c77648de5860a4cc508cd0818c85b8b8a1ab4ceeef8d981c8956a681565b610ca282610371565b610cab81610e44565b610cb58383610f51565b50505050565b610cc3611044565b600073ffffffffffffffffffffffffffffffffffffffff168173ffffffffffffffffffffffffffffffffffffffff1603610d355760006040517f1e4fbdf7000000000000000000000000000000000000000000000000000000008152600401610d2c9190611729565b60405180910390fd5b610d3e816110cb565b50565b60007f01ffc9a7000000000000000000000000000000000000000000000000000000007bffffffffffffffffffffffffffffffffffffffffffffffffffffffff1916827bffffffffffffffffffffffffffffffffffffffffffffffffffffffff1916149050919050565b610e4181604051602401610dbf9190611e25565b6040516020818303038152906040527f41304fac000000000000000000000000000000000000000000000000000000007bffffffffffffffffffffffffffffffffffffffffffffffffffffffff19166020820180517bffffffffffffffffffffffffffffffffffffffffffffffffffffffff838183161783525050505061118f565b50565b610e5581610e50610f49565b6111a9565b50565b6000610e648383610b8c565b610f3e57600180600085815260200190815260200160002060000160008473ffffffffffffffffffffffffffffffffffffffff1673ffffffffffffffffffffffffffffffffffffffff16815260200190815260200160002060006101000a81548160ff021916908315150217905550610edb610f49565b73ffffffffffffffffffffffffffffffffffffffff168273ffffffffffffffffffffffffffffffffffffffff16847f2f8788117e7eff1d82e926ec794901d17c78024a50270940304540a733656f0d60405160405180910390a460019050610f43565b600090505b92915050565b600033905090565b6000610f5d8383610b8c565b156110395760006001600085815260200190815260200160002060000160008473ffffffffffffffffffffffffffffffffffffffff1673ffffffffffffffffffffffffffffffffffffffff16815260200190815260200160002060006101000a81548160ff021916908315150217905550610fd6610f49565b73ffffffffffffffffffffffffffffffffffffffff168273ffffffffffffffffffffffffffffffffffffffff16847ff6391f5c32d9c69d2a47ea670b442974b53935d1edc7fd64eb21e047a839171b60405160405180910390a46001905061103e565b600090505b92915050565b61104c610f49565b73ffffffffffffffffffffffffffffffffffffffff1661106a610b63565b73ffffffffffffffffffffffffffffffffffffffff16146110c95761108d610f49565b6040517f118cdaa70000000000000000000000000000000000000000000000000000000081526004016110c09190611729565b60405180910390fd5b565b60008060009054906101000a900473ffffffffffffffffffffffffffffffffffffffff169050816000806101000a81548173ffffffffffffffffffffffffffffffffffffffff021916908373ffffffffffffffffffffffffffffffffffffffff1602179055508173ffffffffffffffffffffffffffffffffffffffff168173ffffffffffffffffffffffffffffffffffffffff167f8be0079c531659141344cd1fd0a4f28419497f9722a3daafe3b4186f6b6457e060405160405180910390a35050565b6111a68161119e6111fa61121b565b63ffffffff16565b50565b6111b38282610b8c565b6111f65780826040517fe2517d3f0000000000000000000000000000000000000000000000000000000081526004016111ed929190611e47565b60405180910390fd5b5050565b60006a636f6e736f6c652e6c6f679050600080835160208501845afa505050565b611226819050919050565b61122e611e70565b565b6000604051905090565b600080fd5b600080fd5b60007fffffffff0000000000000000000000000000000000000000000000000000000082169050919050565b61127981611244565b811461128457600080fd5b50565b60008135905061129681611270565b92915050565b6000602082840312156112b2576112b161123a565b5b60006112c084828501611287565b91505092915050565b60008115159050919050565b6112de816112c9565b82525050565b60006020820190506112f960008301846112d5565b92915050565b6000819050919050565b611312816112ff565b811461131d57600080fd5b50565b60008135905061132f81611309565b92915050565b60006020828403121561134b5761134a61123a565b5b600061135984828501611320565b91505092915050565b61136b816112ff565b82525050565b60006020820190506113866000830184611362565b92915050565b600080fd5b600080fd5b6000601f19601f8301169050919050565b7f4e487b7100000000000000000000000000000000000000000000000000000000600052604160045260246000fd5b6113df82611396565b810181811067ffffffffffffffff821117156113fe576113fd6113a7565b5b80604052505050565b6000611411611230565b905061141d82826113d6565b919050565b600067ffffffffffffffff82111561143d5761143c6113a7565b5b61144682611396565b9050602081019050919050565b82818337600083830152505050565b600061147561147084611422565b611407565b90508281526020810184848401111561149157611490611391565b5b61149c848285611453565b509392505050565b600082601f8301126114b9576114b861138c565b5b81356114c9848260208601611462565b91505092915050565b600073ffffffffffffffffffffffffffffffffffffffff82169050919050565b60006114fd826114d2565b9050919050565b61150d816114f2565b811461151857600080fd5b50565b60008135905061152a81611504565b92915050565b600080604083850312156115475761154661123a565b5b600083013567ffffffffffffffff8111156115655761156461123f565b5b611571858286016114a4565b92505060206115828582860161151b565b9150509250929050565b600080604083850312156115a3576115a261123a565b5b60006115b185828601611320565b92505060206115c28582860161151b565b9150509250929050565b6000819050919050565b6115df816115cc565b81146115ea57600080fd5b50565b6000813590506115fc816115d6565b92915050565b6000602082840312156116185761161761123a565b5b6000611626848285016115ed565b91505092915050565b600081519050919050565b600082825260208201905092915050565b60005b8381101561166957808201518184015260208101905061164e565b60008484015250505050565b60006116808261162f565b61168a818561163a565b935061169a81856020860161164b565b6116a381611396565b840191505092915050565b6116b7816115cc565b82525050565b600060408201905081810360008301526116d78185611675565b90506116e660208301846116ae565b9392505050565b6000602082840312156117035761170261123a565b5b60006117118482850161151b565b91505092915050565b611723816114f2565b82525050565b600060208201905061173e600083018461171a565b92915050565b60006020828403121561175a5761175961123a565b5b600082013567ffffffffffffffff8111156117785761177761123f565b5b611784848285016114a4565b91505092915050565b7f43616c6c6572206973206e6f742061206d696e74657200000000000000000000600082015250565b60006117c360168361163a565b91506117ce8261178d565b602082019050919050565b600060208201905081810360008301526117f2816117b6565b9050919050565b600081519050611808816115d6565b92915050565b6000602082840312156118245761182361123a565b5b6000611832848285016117f9565b91505092915050565b600081905092915050565b60006118518261162f565b61185b818561183b565b935061186b81856020860161164b565b80840191505092915050565b60006118838284611846565b915081905092915050565b7f4e487b7100000000000000000000000000000000000000000000000000000000600052602260045260246000fd5b600060028204905060018216806118d557607f821691505b6020821081036118e8576118e761188e565b5b50919050565b60008190508160005260206000209050919050565b60006020601f8301049050919050565b600082821b905092915050565b6000600883026119507fffffffffffffffffffffffffffffffffffffffffffffffffffffffffffffffff82611913565b61195a8683611913565b95508019841693508086168417925050509392505050565b6000819050919050565b600061199761199261198d846115cc565b611972565b6115cc565b9050919050565b6000819050919050565b6119b18361197c565b6119c56119bd8261199e565b848454611920565b825550505050565b600090565b6119da6119cd565b6119e58184846119a8565b505050565b5b81811015611a09576119fe6000826119d2565b6001810190506119eb565b5050565b601f821115611a4e57611a1f816118ee565b611a2884611903565b81016020851015611a37578190505b611a4b611a4385611903565b8301826119ea565b50505b505050565b600082821c905092915050565b6000611a7160001984600802611a53565b1980831691505092915050565b6000611a8a8383611a60565b9150826002028217905092915050565b611aa38261162f565b67ffffffffffffffff811115611abc57611abb6113a7565b5b611ac682546118bd565b611ad1828285611a0d565b600060209050601f831160018114611b045760008415611af2578287015190505b611afc8582611a7e565b865550611b64565b601f198416611b12866118ee565b60005b82811015611b3a57848901518255600182019150602085019450602081019050611b15565b86831015611b575784890151611b53601f891682611a60565b8355505b6001600288020188555050505b505050505050565b6000604082019050611b8160008301856116ae565b611b8e60208301846116ae565b9392505050565b6000602082019050611baa60008301846116ae565b92915050565b600081519050611bbf81611504565b92915050565b600060208284031215611bdb57611bda61123a565b5b6000611be984828501611bb0565b91505092915050565b7f596f7520617265206e6f7420746865206f776e65720000000000000000000000600082015250565b6000611c2860158361163a565b9150611c3382611bf2565b602082019050919050565b60006020820190508181036000830152611c5781611c1b565b9050919050565b7f546f6b656e20494420646f6573206e6f74206578697374000000000000000000600082015250565b6000611c9460178361163a565b9150611c9f82611c5e565b602082019050919050565b60006020820190508181036000830152611cc381611c87565b9050919050565b7f4e487b7100000000000000000000000000000000000000000000000000000000600052603260045260246000fd5b60008154611d06816118bd565b611d10818661183b565b94506001821660008114611d2b5760018114611d4057611d73565b60ff1983168652811515820286019350611d73565b611d49856118ee565b60005b83811015611d6b57815481890152600182019150602081019050611d4c565b838801955050505b50505092915050565b6000611d888284611cf9565b915081905092915050565b7f446f63756d656e74206e6f7420666f756e6420666f722074686520676976656e60008201527f20746f6b656e2049440000000000000000000000000000000000000000000000602082015250565b6000611def60298361163a565b9150611dfa82611d93565b604082019050919050565b60006020820190508181036000830152611e1e81611de2565b9050919050565b60006020820190508181036000830152611e3f8184611675565b905092915050565b6000604082019050611e5c600083018561171a565b611e696020830184611362565b9392505050565b7f4e487b7100000000000000000000000000000000000000000000000000000000600052605160045260246000fdfea2646970667358221220896befe918a3aff80d41a101c2d2431dd50a3bc4bdd272f9af0c6a1564547be364736f6c63430008180033",
  "linkReferences": {},
  "deployedLinkReferences": {}
}